:1000000088C00000A1C000009FC000009DC000008B
:100010009BC0000099C0000097C0000095C0000080
:1000200093C0000091C000008FC00000B2C3000068
:1000300075C3000089C0000087C0000085C00000B3
:1000400083C0000081C000007FC000007DC00000B0
:100050007BC0000079C0000077C0000075C00000C0
:1000600073C0000071C000006FC000006DC00000D0
:100070006BC000001201100102000008EB034B20CE
:1000800001000102DC0109023E00020100C0320948
:1000900004000001020201000524001001042402F2
:1000A000060524060001070582030800FF09040174
:1000B00000020A0000000705040210000107058382
:1000C00002100001040309041803440065006100E4
:1000D0006E002000430061006D0065007200610049
:1000E000000030034C005500460041002000550040
:1000F000530042002D005200530032003300320002
:10010000200041006400610070007400650072000E
:10011000000011241FBECFEFD2E0DEBFCDBF11E043
:10012000A0E0B1E0E8E0F0E102C005900D92A43259
:10013000B107D9F712E0A4E2B1E001C01D92A135E8
:10014000B107E1F730D15EC75BCFFC018FB7F89400
:10015000718360837383628375836483640F751F07
:100160007783668351874087138612868FBF0895F1
:10017000CF93DF93EC01E881F981608388819981D5
:100180000196998388832E813F818217930721F4FA
:100190008C819D81998388832FB7F8948A859B856C
:1001A00001969B878A872FBFDF91CF910895CF93C8
:1001B000DF93EC01EA81FB813191FB83EA838E813D
:1001C0009F81E817F90721F48C819D819B838A83A5
:1001D0002FB7F8948A859B8501979B878A872FBFC5
:1001E000832FDF91CF9108950F931F93CF93DF93C8
:1001F0008C01EB0103C0C801BBDF21966881662337
:10020000D1F7DF91CF911F910F91089588E091E090
:1002100052C688E091E028D680FD02C090E201C07D
:1002200090E48BB19095806698239BB90895CF9305
:10023000DF938FB7F894C0913402D09135028FBF0D
:1002400086E392E060E071E0CFDF86E392E06C2F1E
:100250008FDF08C08AE292E0AADF682F86E392E08F
:1002600087DF21972097B1F786E392E065E071E0A0
:10027000BBDF81E0809344025D988DE392E829D151
:10028000DF91CF9108958EE192E06CE771DF81E814
:100290009AEC1FD183E89AEC1CC180E090EB19D155
:1002A000682F80914302882341F4662309F4EBCF41
:1002B000609343021092420208958EE192E058DF6B
:1002C00080914302815080934302882309F4DBCF5D
:1002D00008952FB7F89480914002909141022FBF6A
:1002E000892B39F086E392E062DF90E080509844F9
:1002F000F0C08DED92E8EDD0109244025D9A089521
:1003000084B7877F84BF88E10FB6F894809360003C
:10031000109260000FBE80E090E020E80FB6F894E5
:1003200020936100809361000FBECAD080E090E00E
:10033000D0D096FDFBCF87EE90E8CBD080E496EA54
:10034000C8D086E096ECC5D082EA94E9C2D08CEAA7
:1003500092ECBFD083E89AECBCD085E59EECB9D096
:1003600083E894ECB6D080E598E9B3D087E79CECBD
:10037000B0D080E090EEADD080E098ECAAD089E4D7
:1003800090ECA7D0109243028DED92E8A2D010928B
:1003900044028AB180668AB98BB180668BB9AFD1CD
:1003A00084E085BD0895CF93DF93AADF8EE192E0CC
:1003B00064E271E040E550E0C8DE8AE292E064E782
:1003C00071E040E550E0C1DE86E392E064EC71E06C
:1003D0004AE550E0BADE789480E090E07AD0EC0113
:1003E00090FF06C080914402882311F45E9801C0FA
:1003F0005E9A8FB7F89420913402309135028FBF06
:1004000080913202909133022817390791F0809140
:100410004402882371F488E091E098D4BC0197FDF0
:1004200008C08C37910521F08AE292E0A1DE01C07C
:10043000FEDED7FF07C080914402882311F049DF18
:1004400001C02BDF809143028823B9F0A89B33C001
:10045000A89A809142028F5F809342028D3058F1BA
:100460008EE192E06CE784DE81E89AEC32D083E89A
:100470009AEC2FD0109243021EC08FB7F894C0910F
:100480002802D09129028FBFA89903C0CD33D1058E
:1004900090F0A89A0EC0E0912002F091210288E02D
:1004A00091E06081BCD42197882329F48EE192E009
:1004B0007EDE209781F788E091E0A2D433D48CCF00
:1004C00081E58CBD81E08DBD289A84B1876084B9B7
:1004D000089528989EBD0DB407FEFDCF3EB58EBD94
:1004E0000DB407FEFDCF2EB5932F80E0289A30E0A3
:1004F000282B392BC9010895DA01923049F0933045
:1005000061F09130F9F4E4E7F0E022E130E01EC060
:10051000E6E8F0E02EE330E019C0813049F08130A8
:1005200018F0823079F408C0E4ECF0E0849107C060
:10053000E8ECF0E0849103C0E2EEF0E08491282F33
:1005400030E004C0E0E0F0E020E030E0ED93FC9328
:10055000C90108958F708093E9008091EB0081605C
:100560008093EB001092ED006093EC004093ED005F
:100570008091EE00881F8827881F08950F931F938E
:10058000CF93DF93062FEC0110E029C028812223AE
:1005900021F16B81E981FA818C81823010F432E0A3
:1005A00001C036E040E088E090E003C04F5F880F74
:1005B000991F8E179F07D0F36295660F660F607CB8
:1005C000822F881F8827881F682B4295407F432BE6
:1005D000822F8F70BFDF882329F01F5F25961017A9
:1005E000A8F281E0DF91CF911F910F910895809142
:1005F000490288238CF403C08EB38823B1F0809124
:10060000E80082FFF9CF8091E8008B778093E800C3
:1006100008958EB3882349F08091E80080FFF9CFD8
:100620008091E8008E778093E80008954091E4007F
:100630005091E50024E68091EC0080FF23C080917A
:10064000E80080FD1DC08EB3882311F482E0089578
:10065000853011F483E008958091EB0085FF02C09E
:1006600081E008958091E4009091E500841795075A
:1006700011F3222311F484E008952150AC01DBCF63
:1006800080E008958091E80082FFDDCFF9CF40D06F
:1006900042D08091D8008F778093D8008091D80085
:1006A00080688093D8008091D8008F7D8093D80097
:1006B00084E089BD86E089BD09B400FEFDCF1EBA85
:1006C00010924502109247021092460280E060E0CC
:1006D00042E040DF8091E1008E7F8093E1008091D5
:1006E000E20081608093E2008091E2008860809364
:1006F000E2008091E0008E7F8093E0000895E3E6C1
:10070000F0E080818E7F808381E080934802BFCFBC
:100710001092E20008951092E10008951F920F9246
:100720000FB60F9211241F932F933F934F935F9314
:100730006F937F938F939F93AF93BF93EF93FF93A9
:100740001091E9008091EC001092E9008091F00096
:10075000877F8093F00078947BD11092E90080919C
:10076000F00088608093F0001F701093E900FF9103
:10077000EF91BF91AF919F918F917F916F915F9119
:100780004F913F912F911F910F900FBE0F901F908F
:1007900018951F920F920FB60F9211242F933F932B
:1007A0004F935F936F937F938F939F93AF93BF9379
:1007B000EF93FF938091E10082FF0AC08091E200F5
:1007C00082FF06C08091E1008B7F8093E100A9D277
:1007D0008091E10080FF16C08091E20080FF12C08E
:1007E0008091E2008E7F8093E2008091E200806140
:1007F0008093E2008091D80080628093D80019BC79
:100800001EBA8FD28091E10084FF2CC08091E2005B
:1008100084FF28C084E089BD86E089BD09B400FE5C
:10082000FDCF8091D8008F7D8093D8008091E1002A
:100830008F7E8093E1008091E2008F7E8093E200C2
:100840008091E20081608093E200809145028823DC
:1008500031F48091E30087FD02C081E001C084E0B3
:100860008EBB5FD28091E10083FF26C08091E200C1
:1008700083FF22C08091E100877F8093E10082E0C6
:100880008EBB109245028091E1008E7F8093E10043
:100890008091E2008E7F8093E2008091E20080618F
:1008A0008093E20080E060E042E054DE8091F0005E
:1008B00088608093F00035D2FF91EF91BF91AF91A6
:1008C0009F918F917F916F915F914F913F912F9168
:1008D0000F900FBE0F901F9018959C0140914F02F2
:1008E000509150024617570718F4F90190E03CC0A8
:1008F0006115710511F0AB01F8CF8091E8008E779A
:100900008093E80040E050E0F0CF8EB38823E9F117
:100910008530E9F18091E80083FF02C081E008950D
:100920008091E80082FD2BC08091E80080FF1CC010
:100930008091F200282F30E007C081918093F10070
:10094000415050402F5F3F4F4115510519F028305D
:10095000310598F390E02830310509F491E0809159
:10096000E8008E778093E8004115510571F69923D0
:1009700061F605C08EB3882341F0853041F0809147
:10098000E80082FFF7CF80E0089582E0089583E0D9
:1009900008959C0140914F0250915002461757070D
:1009A00018F4F90190E03FC06115710511F0AB0139
:1009B000F8CF8091E8008E778093E80040E050E027
:1009C000F0CF8EB3882309F43FC0853009F43EC0D0
:1009D0008091E80083FF02C081E008958091E800E3
:1009E00082FD2CC08091E80080FF1DC08091F20044
:1009F000282F30E008C084918093F1003196415057
:100A000050402F5F3F4F4115510519F028303105F7
:100A100090F390E02830310509F491E08091E800EE
:100A20008E778093E8004115510559F6992349F6D0
:100A300005C08EB3882341F0853041F08091E800F5
:100A400082FFF7CF80E0089582E0089583E0089563
:100A50000F931F93DF93CF93CDB7DEB7AC970FB64D
:100A6000F894DEBF0FBECDBFE9E4F2E08091F10063
:100A7000819322E0E135F207C9F7C8DB8091E800F5
:100A800083FF36C18091490230914A02353009F422
:100A900087C0363040F43130C9F1313070F0333036
:100AA00009F026C133C0383009F4F5C0393009F4F3
:100AB00004C1363009F01CC196C0803821F082385C
:100AC00009F016C108C09091460280914702882320
:100AD00099F0926011C080914D028F708093E9006F
:100AE0008091EB0090E025E0969587952A95E1F7B7
:100AF000982F91701092E9008091E800877F809391
:100B0000E8009093F1001092F100D0C0882319F012
:100B1000823009F0EDC090E08F719070009721F065
:100B2000029709F0E5C00CC080914B02813009F0BA
:100B3000DFC010924702333069F5809347022AC024
:100B400080914B02882331F520914D022F7009F4DA
:100B5000CFC02093E9008091EB0080FF1BC03330B1
:100B600021F48091EB00806213C08091EB008061E2
:100B70008093EB0081E090E002C0880F991F2A95D6
:100B8000E2F78093EA001092EA008091EB0088601F
:100B90008093EB001092E9008091E800877F89C084
:100BA000882309F0A5C010914B021F770FB7F89466
:100BB0008091E800877F8093E80019DD8091E8004C
:100BC00080FFFCCF8091E3008078812B8093E3004D
:100BD00080688093E300112311F482E001C083E078
:100BE0008EBB0FBF85C08058823008F081C08091D5
:100BF0004B0290914C0223E08C3D920709F033C0E8
:100C000083E08C838AE28B837FB7F894DE011596AC
:100C10006EE040E050E011E2E62FF0E01093570064
:100C2000849140FF03C082958F706F5F8F70282F73
:100C300030E08A3018F0C901C79602C0C901C096D9
:100C40008D939D934F5F5F4F4431510529F77FBFCF
:100C50008091E800877F8093E800CE0103966AE2E6
:100C600070E03BDE12C060914D02AE014F5F5F4FFE
:100C700043DCBC01009709F43BC08091E800877F0A
:100C80008093E80089819A8184DE8091E8008B77E7
:100C90008093E8002DC0803859F58091E800877F67
:100CA0008093E800809145028093F1008091E800F4
:100CB0008E778093E8009BDC1BC08823C9F4909159
:100CC0004B029230A8F48091E800877F8093E8007F
:100CD000909345028CDC80914502882331F4809109
:100CE000E30087FD02C081E001C084E08EBB91DAA1
:100CF0008091E80083FF0AC08091EB0080628093BE
:100D0000EB008091E800877F8093E800AC960FB6F7
:100D1000F894DEBF0FBECDBFCF91DF911F910F9131
:100D2000089508951F938EB3882371F01091E90000
:100D30008091EC001092E9008091E80083FF01C0EF
:100D400087DE1F701093E9001F910895FC018EB398
:100D5000843029F584899589A689B7890097A105EA
:100D6000B105E9F086818F708093E9008091E800F9
:100D700082FF15C08091F200882319F42FEF3FEF16
:100D800004C08091F100282F30E08091F200882388
:100D900041F48091E8008B778093E80002C02FEF48
:100DA0003FEFC90108950895FC018EB3843019F511
:100DB00084899589A689B7890097A105B105D9F0DD
:100DC00081818F708093E9008091F2008823A9F0DF
:100DD0009091E8008091E8008E778093E80095FD7F
:100DE0000CC024DC982F882349F48091E8008E778A
:100DF0008093E80003C092E001C090E0892F08953D
:100E0000FC018EB3843051F484899589A689B78911
:100E10000097A105B10511F0CF01C6CF08951F932A
:100E2000FC01162F8EB38430E1F484899589A6895C
:100E3000B7890097A105B105A1F081818F708093DA
:100E4000E9008091E80085FD08C08091E8008E7778
:100E50008093E800EBDB882329F41093F10080E015
:100E600001C082E01F910895CF93DF93EC0140967B
:100E7000FC018BE0DF011D928A95E9F782E08C830B
:100E8000898783E08E87CE01019661E077DB882336
:100E900071F0CE01069661E071DB882341F0CE014E
:100EA0000B9661E06BDB882319F081E001C080E0E4
:100EB000DF91CF910895CF93DF93EC018091E8000B
:100EC00083FF9DC0888190E020914D0230914E02B9
:100ED0002817390709F093C080914A02813269F0DE
:100EE000823220F4803209F08AC03CC0823209F498
:100EF00065C0833209F083C074C080914902813A91
:100F000009F07DC08091E800877F8093E8008091A0
:100F1000E80080FFFCCF8C899D89AE89BF898093D2
:100F2000F100292F3A2F4B2F55272093F1009D01D7
:100F3000442755272093F1008B2F9927AA27BB27F9
:100F40008093F100888D8093F100898D8093F1006A
:100F50008A8D8093F1008091E8008E778093E8007D
:100F600046DB4DC080914902813209F048C0809132
:100F7000E800877F8093E8008091E80082FFFCCF43
:100F80008091F1009091F1002091F1003091F100F9
:100F90008C8B9D8B2E8B3F8B8091F100888F809165
:100FA000F100898F8091F1008A8F8091E8008B7722
:100FB0008093E8001CDBCE01F6DE21C0809149025F
:100FC0008132E9F48091E800877F8093E8000FDBAD
:100FD00080914B0290914C02998B888BCE01E3DE7D
:100FE0000EC080914902813251F48091E800877FE0
:100FF0008093E800FCDACE0160914B02D4DEDF91F1
:08100000CF910895F894FFCF91
:10100800AAAA2D5500AAAA00008310000001041006
:10101800000001820800000100000000000000003C
:0410280000000000C4
:00000001FF
